{
	"contractName": "MultiSigWallet",
	"abi": [
		{
			"inputs": [
				{
					"internalType": "address[]",
					"name": "_owners",
					"type": "address[]"
				},
				{
					"internalType": "uint256",
					"name": "_numConfirmationsRequired",
					"type": "uint256"
				}
			],
			"stateMutability": "nonpayable",
			"type": "constructor"
		},
		{
			"anonymous": false,
			"inputs": [
				{
					"indexed": true,
					"internalType": "address",
					"name": "owner",
					"type": "address"
				},
				{
					"indexed": true,
					"internalType": "uint256",
					"name": "txIndex",
					"type": "uint256"
				}
			],
			"name": "ConfirmTransaction",
			"type": "event"
		},
		{
			"anonymous": false,
			"inputs": [
				{
					"indexed": true,
					"internalType": "address",
					"name": "sender",
					"type": "address"
				},
				{
					"indexed": false,
					"internalType": "uint256",
					"name": "amount",
					"type": "uint256"
				},
				{
					"indexed": false,
					"internalType": "uint256",
					"name": "balance",
					"type": "uint256"
				}
			],
			"name": "Deposit",
			"type": "event"
		},
		{
			"anonymous": false,
			"inputs": [
				{
					"indexed": true,
					"internalType": "address",
					"name": "owner",
					"type": "address"
				},
				{
					"indexed": true,
					"internalType": "uint256",
					"name": "txIndex",
					"type": "uint256"
				}
			],
			"name": "ExecuteTransaction",
			"type": "event"
		},
		{
			"anonymous": false,
			"inputs": [
				{
					"indexed": true,
					"internalType": "address",
					"name": "owner",
					"type": "address"
				},
				{
					"indexed": true,
					"internalType": "uint256",
					"name": "txIndex",
					"type": "uint256"
				}
			],
			"name": "RevokeConfirmation",
			"type": "event"
		},
		{
			"anonymous": false,
			"inputs": [
				{
					"indexed": true,
					"internalType": "address",
					"name": "owner",
					"type": "address"
				},
				{
					"indexed": true,
					"internalType": "uint256",
					"name": "txIndex",
					"type": "uint256"
				},
				{
					"indexed": true,
					"internalType": "address",
					"name": "to",
					"type": "address"
				},
				{
					"indexed": false,
					"internalType": "uint256",
					"name": "amount",
					"type": "uint256"
				},
				{
					"indexed": false,
					"internalType": "string",
					"name": "purpose",
					"type": "string"
				}
			],
			"name": "SubmitTransaction",
			"type": "event"
		},
		{
			"anonymous": false,
			"inputs": [
				{
					"indexed": true,
					"internalType": "address",
					"name": "sender",
					"type": "address"
				},
				{
					"indexed": false,
					"internalType": "uint256",
					"name": "balance",
					"type": "uint256"
				}
			],
			"name": "Withdrawal",
			"type": "event"
		},
		{
			"inputs": [
				{
					"internalType": "address",
					"name": "",
					"type": "address"
				}
			],
			"name": "isOwner",
			"outputs": [
				{
					"internalType": "bool",
					"name": "",
					"type": "bool"
				}
			],
			"stateMutability": "view",
			"type": "function"
		},
		{
			"inputs": [],
			"name": "numConfirmationsRequired",
			"outputs": [
				{
					"internalType": "uint256",
					"name": "",
					"type": "uint256"
				}
			],
			"stateMutability": "view",
			"type": "function"
		},
		{
			"inputs": [
				{
					"internalType": "uint256",
					"name": "",
					"type": "uint256"
				}
			],
			"name": "owners",
			"outputs": [
				{
					"internalType": "address",
					"name": "",
					"type": "address"
				}
			],
			"stateMutability": "view",
			"type": "function"
		},
		{
			"inputs": [
				{
					"internalType": "uint256",
					"name": "",
					"type": "uint256"
				}
			],
			"name": "transactions",
			"outputs": [
				{
					"internalType": "address",
					"name": "to",
					"type": "address"
				},
				{
					"internalType": "uint256",
					"name": "amount",
					"type": "uint256"
				},
				{
					"internalType": "string",
					"name": "purpose",
					"type": "string"
				},
				{
					"internalType": "bool",
					"name": "executed",
					"type": "bool"
				},
				{
					"internalType": "uint256",
					"name": "numConfirmations",
					"type": "uint256"
				}
			],
			"stateMutability": "view",
			"type": "function"
		},
		{
			"inputs": [],
			"name": "walletAddr",
			"outputs": [
				{
					"internalType": "address",
					"name": "",
					"type": "address"
				}
			],
			"stateMutability": "view",
			"type": "function"
		},
		{
			"inputs": [],
			"name": "walletBalance",
			"outputs": [
				{
					"internalType": "uint256",
					"name": "",
					"type": "uint256"
				}
			],
			"stateMutability": "view",
			"type": "function"
		},
		{
			"inputs": [
				{
					"internalType": "uint256",
					"name": "_amount",
					"type": "uint256"
				}
			],
			"name": "deposit",
			"outputs": [],
			"stateMutability": "payable",
			"type": "function"
		},
		{
			"inputs": [],
			"name": "getBalance",
			"outputs": [
				{
					"internalType": "uint256",
					"name": "",
					"type": "uint256"
				}
			],
			"stateMutability": "view",
			"type": "function"
		},
		{
			"inputs": [
				{
					"internalType": "address",
					"name": "_to",
					"type": "address"
				},
				{
					"internalType": "uint256",
					"name": "_value",
					"type": "uint256"
				},
				{
					"internalType": "string",
					"name": "_purpose",
					"type": "string"
				}
			],
			"name": "submitTransaction",
			"outputs": [],
			"stateMutability": "nonpayable",
			"type": "function"
		},
		{
			"inputs": [
				{
					"internalType": "uint256",
					"name": "_txIndex",
					"type": "uint256"
				}
			],
			"name": "confirmTransaction",
			"outputs": [],
			"stateMutability": "nonpayable",
			"type": "function"
		},
		{
			"inputs": [
				{
					"internalType": "uint256",
					"name": "_txIndex",
					"type": "uint256"
				}
			],
			"name": "executeTransaction",
			"outputs": [],
			"stateMutability": "nonpayable",
			"type": "function"
		},
		{
			"inputs": [
				{
					"internalType": "uint256",
					"name": "_txIndex",
					"type": "uint256"
				}
			],
			"name": "revokeConfirmation",
			"outputs": [],
			"stateMutability": "nonpayable",
			"type": "function"
		},
		{
			"inputs": [
				{
					"internalType": "uint256",
					"name": "_txIndex",
					"type": "uint256"
				}
			],
			"name": "getTransaction",
			"outputs": [
				{
					"internalType": "address",
					"name": "to",
					"type": "address"
				},
				{
					"internalType": "uint256",
					"name": "amount",
					"type": "uint256"
				},
				{
					"internalType": "string",
					"name": "purpose",
					"type": "string"
				},
				{
					"internalType": "bool",
					"name": "executed",
					"type": "bool"
				},
				{
					"internalType": "uint256",
					"name": "numConfirmations",
					"type": "uint256"
				}
			],
			"stateMutability": "view",
			"type": "function"
		},
		{
			"inputs": [],
			"name": "getOwners",
			"outputs": [
				{
					"internalType": "address[]",
					"name": "",
					"type": "address[]"
				}
			],
			"stateMutability": "view",
			"type": "function"
		},
		{
			"inputs": [],
			"name": "getNumConfirmationsRequired",
			"outputs": [
				{
					"internalType": "uint256",
					"name": "",
					"type": "uint256"
				}
			],
			"stateMutability": "view",
			"type": "function"
		},
		{
			"inputs": [],
			"name": "getTransactionCount",
			"outputs": [
				{
					"internalType": "uint256",
					"name": "",
					"type": "uint256"
				}
			],
			"stateMutability": "view",
			"type": "function"
		},
		{
			"inputs": [
				{
					"internalType": "uint256",
					"name": "_txIndex",
					"type": "uint256"
				},
				{
					"internalType": "address",
					"name": "_owner",
					"type": "address"
				}
			],
			"name": "isConfirmed",
			"outputs": [
				{
					"internalType": "bool",
					"name": "",
					"type": "bool"
				}
			],
			"stateMutability": "view",
			"type": "function"
		}
	],
	"bytecode": "0x608060405273874069fa1eb16d44d622f2e0ca25eea172369bc16000806101000a81548173ffffffffffffffffffffffffffffffffffffffff021916908373ffffffffffffffffffffffffffffffffffffffff1602179055503480156200006557600080fd5b5060405162002bb238038062002bb283398181016040528101906200008b919062000410565b6000811180156200009d575081518111155b620000df576040517f08c379a0000000000000000000000000000000000000000000000000000000008152600401620000d6906200052f565b60405180910390fd5b60005b8251811015620002e3576000838281518110620001045762000103620006ab565b5b60200260200101519050600073ffffffffffffffffffffffffffffffffffffffff168173ffffffffffffffffffffffffffffffffffffffff16141562000181576040517f08c379a000000000000000000000000000000000000000000000000000000000815260040162000178906200050d565b60405180910390fd5b600260008273ffffffffffffffffffffffffffffffffffffffff1673ffffffffffffffffffffffffffffffffffffffff16815260200190815260200160002060009054906101000a900460ff161562000211576040517f08c379a00000000000000000000000000000000000000000000000000000000081526004016200020890620004eb565b60405180910390fd5b6001600260008373ffffffffffffffffffffffffffffffffffffffff1673ffffffffffffffffffffffffffffffffffffffff16815260200190815260200160002060006101000a81548160ff0219169083151502179055506001819080600181540180825580915050600190039060005260206000200160009091909190916101000a81548173ffffffffffffffffffffffffffffffffffffffff021916908373ffffffffffffffffffffffffffffffffffffffff160217905550508080620002da906200062e565b915050620000e2565b508060038190555030600460006101000a81548173ffffffffffffffffffffffffffffffffffffffff021916908373ffffffffffffffffffffffffffffffffffffffff160217905550505062000803565b60006200034b62000345846200057a565b62000551565b905080838252602082019050828560208602820111156200037157620003706200070e565b5b60005b85811015620003a557816200038a8882620003af565b84526020840193506020830192505060018101905062000374565b5050509392505050565b600081519050620003c081620007cf565b92915050565b600082601f830112620003de57620003dd62000709565b5b8151620003f084826020860162000334565b91505092915050565b6000815190506200040a81620007e9565b92915050565b600080604083850312156200042a576200042962000718565b5b600083015167ffffffffffffffff8111156200044b576200044a62000713565b5b6200045985828601620003c6565b92505060206200046c85828601620003f9565b9150509250929050565b600062000485601083620005a9565b915062000492826200072e565b602082019050919050565b6000620004ac600d83620005a9565b9150620004b98262000757565b602082019050919050565b6000620004d3602883620005a9565b9150620004e08262000780565b604082019050919050565b60006020820190508181036000830152620005068162000476565b9050919050565b6000602082019050818103600083015262000528816200049d565b9050919050565b600060208201905081810360008301526200054a81620004c4565b9050919050565b60006200055d62000570565b90506200056b8282620005f8565b919050565b6000604051905090565b600067ffffffffffffffff821115620005985762000597620006da565b5b602082029050602081019050919050565b600082825260208201905092915050565b6000620005c782620005ce565b9050919050565b600073ffffffffffffffffffffffffffffffffffffffff82169050919050565b6000819050919050565b62000603826200071d565b810181811067ffffffffffffffff82111715620006255762000624620006da565b5b80604052505050565b60006200063b82620005ee565b91507fffffffffffffffffffffffffffffffffffffffffffffffffffffffffffffffff8214156200067157620006706200067c565b5b600182019050919050565b7f4e487b7100000000000000000000000000000000000000000000000000000000600052601160045260246000fd5b7f4e487b7100000000000000000000000000000000000000000000000000000000600052603260045260246000fd5b7f4e487b7100000000000000000000000000000000000000000000000000000000600052604160045260246000fd5b600080fd5b600080fd5b600080fd5b600080fd5b6000601f19601f8301169050919050565b7f6f776e6572206e6f7420756e6971756500000000000000000000000000000000600082015250565b7f696e76616c6964206f776e657200000000000000000000000000000000000000600082015250565b7f696e76616c6964206e756d626572206f6620726571756972656420636f6e666960008201527f726d6174696f6e73000000000000000000000000000000000000000000000000602082015250565b620007da81620005ba565b8114620007e657600080fd5b50565b620007f481620005ee565b81146200080057600080fd5b50565b61239f80620008136000396000f3fe6080604052600436106100fe5760003560e01c80637b7985ad11610095578063b6b55f2511610064578063b6b55f2514610365578063c01a8c8414610381578063cd0a314b146103aa578063d0549b85146103d5578063ee22610b14610400576100fe565b80637b7985ad1461029157806380f59a65146102bc5780639ace38c2146102f9578063a0e67e2b1461033a576100fe565b80632e7700f0116100d15780632e7700f0146101bd5780632f54bf6e146101e857806333ea3dc8146102255780636052344014610266576100fe565b8063025e7c271461010357806303d79d281461014057806312065fe01461016957806320ea8d8614610194575b600080fd5b34801561010f57600080fd5b5061012a6004803603810190610125919061194a565b610429565b6040516101379190611c0a565b60405180910390f35b34801561014c57600080fd5b50610167600480360381019061016291906118ae565b610468565b005b34801561017557600080fd5b5061017e61063d565b60405161018b9190611e3c565b60405180910390f35b3480156101a057600080fd5b506101bb60048036038101906101b6919061194a565b6106f2565b005b3480156101c957600080fd5b506101d26109ae565b6040516101df9190611e3c565b60405180910390f35b3480156101f457600080fd5b5061020f600480360381019061020a9190611881565b6109bb565b60405161021c9190611d01565b60405180910390f35b34801561023157600080fd5b5061024c6004803603810190610247919061194a565b6109db565b60405161025d959493929190611c85565b60405180910390f35b34801561027257600080fd5b5061027b610aee565b6040516102889190611e3c565b60405180910390f35b34801561029d57600080fd5b506102a6610af8565b6040516102b39190611c0a565b60405180910390f35b3480156102c857600080fd5b506102e360048036038101906102de91906119a4565b610b1e565b6040516102f09190611d01565b60405180910390f35b34801561030557600080fd5b50610320600480360381019061031b919061194a565b610b9d565b604051610331959493929190611c85565b60405180910390f35b34801561034657600080fd5b5061034f610c98565b60405161035c9190611cdf565b60405180910390f35b61037f600480360381019061037a919061194a565b610d26565b005b34801561038d57600080fd5b506103a860048036038101906103a3919061194a565b610f0f565b005b3480156103b657600080fd5b506103bf6111ef565b6040516103cc9190611e3c565b60405180910390f35b3480156103e157600080fd5b506103ea6111f5565b6040516103f79190611e3c565b60405180910390f35b34801561040c57600080fd5b506104276004803603810190610422919061194a565b6111fb565b005b6001818154811061043957600080fd5b906000526020600020016000915054906101000a900473ffffffffffffffffffffffffffffffffffffffff1681565b600260003373ffffffffffffffffffffffffffffffffffffffff1673ffffffffffffffffffffffffffffffffffffffff16815260200190815260200160002060009054906101000a900460ff166104f4576040517f08c379a00000000000000000000000000000000000000000000000000000000081526004016104eb90611e1c565b60405180910390fd5b6000600680549050905060066001816001815401808255809150500390600052602060002090505060006006828154811061053257610531612130565b5b90600052602060002090600602019050848160000160006101000a81548173ffffffffffffffffffffffffffffffffffffffff021916908373ffffffffffffffffffffffffffffffffffffffff160217905550838160010181905550828160020190805190602001906105a692919061171a565b5060008160030160006101000a81548160ff021916908315150217905550600081600401819055508473ffffffffffffffffffffffffffffffffffffffff16823373ffffffffffffffffffffffffffffffffffffffff167f557adc301c59c014874da9dd74ad580f3d8a99947a7df3947967947d8e89920e878760405161062e929190611e57565b60405180910390a45050505050565b60008060008054906101000a900473ffffffffffffffffffffffffffffffffffffffff1673ffffffffffffffffffffffffffffffffffffffff166370a08231306040518263ffffffff1660e01b81526004016106999190611c0a565b60206040518083038186803b1580156106b157600080fd5b505afa1580156106c5573d6000803e3d6000fd5b505050506040513d601f19601f820116820180604052508101906106e99190611977565b90508091505090565b600260003373ffffffffffffffffffffffffffffffffffffffff1673ffffffffffffffffffffffffffffffffffffffff16815260200190815260200160002060009054906101000a900460ff1661077e576040517f08c379a000000000000000000000000000000000000000000000000000000000815260040161077590611e1c565b60405180910390fd5b8060068054905081106107c6576040517f08c379a00000000000000000000000000000000000000000000000000000000081526004016107bd90611d7c565b60405180910390fd5b81600681815481106107db576107da612130565b5b906000526020600020906006020160030160009054906101000a900460ff161561083a576040517f08c379a000000000000000000000000000000000000000000000000000000000815260040161083190611dbc565b60405180910390fd5b6000600684815481106108505761084f612130565b5b906000526020600020906006020190508060050160003373ffffffffffffffffffffffffffffffffffffffff1673ffffffffffffffffffffffffffffffffffffffff16815260200190815260200160002060009054906101000a900460ff166108ee576040517f08c379a00000000000000000000000000000000000000000000000000000000081526004016108e590611ddc565b60405180910390fd5b60008160050160003373ffffffffffffffffffffffffffffffffffffffff1673ffffffffffffffffffffffffffffffffffffffff16815260200190815260200160002060006101000a81548160ff021916908315150217905550600181600401600082825461095d9190611fb1565b92505081905550833373ffffffffffffffffffffffffffffffffffffffff167ff0dca620e2e81f7841d07bcc105e1704fb01475b278a9d4c236e1c62945edd5560405160405180910390a350505050565b6000600680549050905090565b60026020528060005260406000206000915054906101000a900460ff1681565b60008060606000806000600687815481106109f9576109f8612130565b5b906000526020600020906006020190508060000160009054906101000a900473ffffffffffffffffffffffffffffffffffffffff168160010154826002018360030160009054906101000a900460ff168460040154828054610a5a9061206f565b80601f0160208091040260200160405190810160405280929190818152602001828054610a869061206f565b8015610ad35780601f10610aa857610100808354040283529160200191610ad3565b820191906000526020600020905b815481529060010190602001808311610ab657829003601f168201915b50505050509250955095509550955095505091939590929450565b6000600354905090565b600460009054906101000a900473ffffffffffffffffffffffffffffffffffffffff1681565b60008060068481548110610b3557610b34612130565b5b906000526020600020906006020190508060050160008473ffffffffffffffffffffffffffffffffffffffff1673ffffffffffffffffffffffffffffffffffffffff16815260200190815260200160002060009054906101000a900460ff1691505092915050565b60068181548110610bad57600080fd5b90600052602060002090600602016000915090508060000160009054906101000a900473ffffffffffffffffffffffffffffffffffffffff1690806001015490806002018054610bfc9061206f565b80601f0160208091040260200160405190810160405280929190818152602001828054610c289061206f565b8015610c755780601f10610c4a57610100808354040283529160200191610c75565b820191906000526020600020905b815481529060010190602001808311610c5857829003601f168201915b5050505050908060030160009054906101000a900460ff16908060040154905085565b60606001805480602002602001604051908101604052809291908181526020018280548015610d1c57602002820191906000526020600020905b8160009054906101000a900473ffffffffffffffffffffffffffffffffffffffff1673ffffffffffffffffffffffffffffffffffffffff1681526020019060010190808311610cd2575b5050505050905090565b60008054906101000a900473ffffffffffffffffffffffffffffffffffffffff1673ffffffffffffffffffffffffffffffffffffffff166323b872dd3330846040518463ffffffff1660e01b8152600401610d8393929190611c25565b602060405180830381600087803b158015610d9d57600080fd5b505af1158015610db1573d6000803e3d6000fd5b505050506040513d601f19601f82011682018060405250810190610dd5919061191d565b610e14576040517f08c379a0000000000000000000000000000000000000000000000000000000008152600401610e0b90611d1c565b60405180910390fd5b3373ffffffffffffffffffffffffffffffffffffffff167f90890809c654f11d6e72a28fa60149770a0d11ec6c92319d6ceb2bb0a4ea1a158260008054906101000a900473ffffffffffffffffffffffffffffffffffffffff1673ffffffffffffffffffffffffffffffffffffffff166370a08231306040518263ffffffff1660e01b8152600401610ea69190611c0a565b60206040518083038186803b158015610ebe57600080fd5b505afa158015610ed2573d6000803e3d6000fd5b505050506040513d601f19601f82011682018060405250810190610ef69190611977565b604051610f04929190611e87565b60405180910390a250565b600260003373ffffffffffffffffffffffffffffffffffffffff1673ffffffffffffffffffffffffffffffffffffffff16815260200190815260200160002060009054906101000a900460ff16610f9b576040517f08c379a0000000000000000000000000000000000000000000000000000000008152600401610f9290611e1c565b60405180910390fd5b806006805490508110610fe3576040517f08c379a0000000000000000000000000000000000000000000000000000000008152600401610fda90611d7c565b60405180910390fd5b8160068181548110610ff857610ff7612130565b5b906000526020600020906006020160030160009054906101000a900460ff1615611057576040517f08c379a000000000000000000000000000000000000000000000000000000000815260040161104e90611dbc565b60405180910390fd5b826006818154811061106c5761106b612130565b5b906000526020600020906006020160050160003373ffffffffffffffffffffffffffffffffffffffff1673ffffffffffffffffffffffffffffffffffffffff16815260200190815260200160002060009054906101000a900460ff1615611108576040517f08c379a00000000000000000000000000000000000000000000000000000000081526004016110ff90611d9c565b60405180910390fd5b60006006858154811061111e5761111d612130565b5b9060005260206000209060060201905060018160050160003373ffffffffffffffffffffffffffffffffffffffff1673ffffffffffffffffffffffffffffffffffffffff16815260200190815260200160002060006101000a81548160ff021916908315150217905550600181600401600082825461119d9190611f5b565b92505081905550843373ffffffffffffffffffffffffffffffffffffffff167f5cbe105e36805f7820e291f799d5794ff948af2a5f664e580382defb6339004160405160405180910390a35050505050565b60055481565b60035481565b600260003373ffffffffffffffffffffffffffffffffffffffff1673ffffffffffffffffffffffffffffffffffffffff16815260200190815260200160002060009054906101000a900460ff16611287576040517f08c379a000000000000000000000000000000000000000000000000000000000815260040161127e90611e1c565b60405180910390fd5b8060068054905081106112cf576040517f08c379a00000000000000000000000000000000000000000000000000000000081526004016112c690611d7c565b60405180910390fd5b81600681815481106112e4576112e3612130565b5b906000526020600020906006020160030160009054906101000a900460ff1615611343576040517f08c379a000000000000000000000000000000000000000000000000000000000815260040161133a90611dbc565b60405180910390fd5b60006006848154811061135957611358612130565b5b90600052602060002090600602019050600354816004015410156113b2576040517f08c379a00000000000000000000000000000000000000000000000000000000081526004016113a990611dfc565b60405180910390fd5b60008160000160009054906101000a900473ffffffffffffffffffffffffffffffffffffffff1690506000826001015490508060008054906101000a900473ffffffffffffffffffffffffffffffffffffffff1673ffffffffffffffffffffffffffffffffffffffff166370a08231306040518263ffffffff1660e01b815260040161143e9190611c0a565b60206040518083038186803b15801561145657600080fd5b505afa15801561146a573d6000803e3d6000fd5b505050506040513d601f19601f8201168201806040525081019061148e9190611977565b10156114cf576040517f08c379a00000000000000000000000000000000000000000000000000000000081526004016114c690611d3c565b60405180910390fd5b60008054906101000a900473ffffffffffffffffffffffffffffffffffffffff1673ffffffffffffffffffffffffffffffffffffffff1663a9059cbb83836040518363ffffffff1660e01b815260040161152a929190611c5c565b602060405180830381600087803b15801561154457600080fd5b505af1158015611558573d6000803e3d6000fd5b505050506040513d601f19601f8201168201806040525081019061157c919061191d565b6115bb576040517f08c379a00000000000000000000000000000000000000000000000000000000081526004016115b290611d5c565b60405180910390fd5b60018360030160006101000a81548160ff021916908315150217905550853373ffffffffffffffffffffffffffffffffffffffff167f5445f318f4f5fcfb66592e68e0cc5822aa15664039bd5f0ffde24c5a8142b1ac60405160405180910390a33373ffffffffffffffffffffffffffffffffffffffff167f7fcf532c15f0a6db0bd6d0e038bea71d30d808c7d98cb3bf7268a95bf5081b6560008054906101000a900473ffffffffffffffffffffffffffffffffffffffff1673ffffffffffffffffffffffffffffffffffffffff166370a08231306040518263ffffffff1660e01b81526004016116ad9190611c0a565b60206040518083038186803b1580156116c557600080fd5b505afa1580156116d9573d6000803e3d6000fd5b505050506040513d601f19601f820116820180604052508101906116fd9190611977565b60405161170a9190611e3c565b60405180910390a2505050505050565b8280546117269061206f565b90600052602060002090601f016020900481019282611748576000855561178f565b82601f1061176157805160ff191683800117855561178f565b8280016001018555821561178f579182015b8281111561178e578251825591602001919060010190611773565b5b50905061179c91906117a0565b5090565b5b808211156117b95760008160009055506001016117a1565b5090565b60006117d06117cb84611ed5565b611eb0565b9050828152602081018484840111156117ec576117eb612193565b5b6117f784828561202d565b509392505050565b60008135905061180e81612324565b92915050565b6000815190506118238161233b565b92915050565b600082601f83011261183e5761183d61218e565b5b813561184e8482602086016117bd565b91505092915050565b60008135905061186681612352565b92915050565b60008151905061187b81612352565b92915050565b6000602082840312156118975761189661219d565b5b60006118a5848285016117ff565b91505092915050565b6000806000606084860312156118c7576118c661219d565b5b60006118d5868287016117ff565b93505060206118e686828701611857565b925050604084013567ffffffffffffffff81111561190757611906612198565b5b61191386828701611829565b9150509250925092565b6000602082840312156119335761193261219d565b5b600061194184828501611814565b91505092915050565b6000602082840312156119605761195f61219d565b5b600061196e84828501611857565b91505092915050565b60006020828403121561198d5761198c61219d565b5b600061199b8482850161186c565b91505092915050565b600080604083850312156119bb576119ba61219d565b5b60006119c985828601611857565b92505060206119da858286016117ff565b9150509250929050565b60006119f083836119fc565b60208301905092915050565b611a0581611fe5565b82525050565b611a1481611fe5565b82525050565b6000611a2582611f16565b611a2f8185611f39565b9350611a3a83611f06565b8060005b83811015611a6b578151611a5288826119e4565b9750611a5d83611f2c565b925050600181019050611a3e565b5085935050505092915050565b611a8181611ff7565b82525050565b6000611a9282611f21565b611a9c8185611f4a565b9350611aac81856020860161203c565b611ab5816121a2565b840191505092915050565b6000611acd600f83611f4a565b9150611ad8826121b3565b602082019050919050565b6000611af0601283611f4a565b9150611afb826121dc565b602082019050919050565b6000611b13600983611f4a565b9150611b1e82612205565b602082019050919050565b6000611b36601183611f4a565b9150611b418261222e565b602082019050919050565b6000611b59601483611f4a565b9150611b6482612257565b602082019050919050565b6000611b7c601383611f4a565b9150611b8782612280565b602082019050919050565b6000611b9f601083611f4a565b9150611baa826122a9565b602082019050919050565b6000611bc2601183611f4a565b9150611bcd826122d2565b602082019050919050565b6000611be5600983611f4a565b9150611bf0826122fb565b602082019050919050565b611c0481612023565b82525050565b6000602082019050611c1f6000830184611a0b565b92915050565b6000606082019050611c3a6000830186611a0b565b611c476020830185611a0b565b611c546040830184611bfb565b949350505050565b6000604082019050611c716000830185611a0b565b611c7e6020830184611bfb565b9392505050565b600060a082019050611c9a6000830188611a0b565b611ca76020830187611bfb565b8181036040830152611cb98186611a87565b9050611cc86060830185611a78565b611cd56080830184611bfb565b9695505050505050565b60006020820190508181036000830152611cf98184611a1a565b905092915050565b6000602082019050611d166000830184611a78565b92915050565b60006020820190508181036000830152611d3581611ac0565b9050919050565b60006020820190508181036000830152611d5581611ae3565b9050919050565b60006020820190508181036000830152611d7581611b06565b9050919050565b60006020820190508181036000830152611d9581611b29565b9050919050565b60006020820190508181036000830152611db581611b4c565b9050919050565b60006020820190508181036000830152611dd581611b6f565b9050919050565b60006020820190508181036000830152611df581611b92565b9050919050565b60006020820190508181036000830152611e1581611bb5565b9050919050565b60006020820190508181036000830152611e3581611bd8565b9050919050565b6000602082019050611e516000830184611bfb565b92915050565b6000604082019050611e6c6000830185611bfb565b8181036020830152611e7e8184611a87565b90509392505050565b6000604082019050611e9c6000830185611bfb565b611ea96020830184611bfb565b9392505050565b6000611eba611ecb565b9050611ec682826120a1565b919050565b6000604051905090565b600067ffffffffffffffff821115611ef057611eef61215f565b5b611ef9826121a2565b9050602081019050919050565b6000819050602082019050919050565b600081519050919050565b600081519050919050565b6000602082019050919050565b600082825260208201905092915050565b600082825260208201905092915050565b6000611f6682612023565b9150611f7183612023565b9250827fffffffffffffffffffffffffffffffffffffffffffffffffffffffffffffffff03821115611fa657611fa56120d2565b5b828201905092915050565b6000611fbc82612023565b9150611fc783612023565b925082821015611fda57611fd96120d2565b5b828203905092915050565b6000611ff082612003565b9050919050565b60008115159050919050565b600073ffffffffffffffffffffffffffffffffffffffff82169050919050565b6000819050919050565b82818337600083830152505050565b60005b8381101561205a57808201518184015260208101905061203f565b83811115612069576000848401525b50505050565b6000600282049050600182168061208757607f821691505b6020821081141561209b5761209a612101565b5b50919050565b6120aa826121a2565b810181811067ffffffffffffffff821117156120c9576120c861215f565b5b80604052505050565b7f4e487b7100000000000000000000000000000000000000000000000000000000600052601160045260246000fd5b7f4e487b7100000000000000000000000000000000000000000000000000000000600052602260045260246000fd5b7f4e487b7100000000000000000000000000000000000000000000000000000000600052603260045260246000fd5b7f4e487b7100000000000000000000000000000000000000000000000000000000600052604160045260246000fd5b600080fd5b600080fd5b600080fd5b600080fd5b6000601f19601f8301169050919050565b7f5472616e73666572206661696c65640000000000000000000000000000000000600082015250565b7f4e6f7420456e6f7567682042616c616e63650000000000000000000000000000600082015250565b7f7478206661696c65640000000000000000000000000000000000000000000000600082015250565b7f747820646f6573206e6f74206578697374000000000000000000000000000000600082015250565b7f747820616c726561647920636f6e6669726d6564000000000000000000000000600082015250565b7f747820616c726561647920657865637574656400000000000000000000000000600082015250565b7f7478206e6f7420636f6e6669726d656400000000000000000000000000000000600082015250565b7f63616e6e6f742065786563757465207478000000000000000000000000000000600082015250565b7f6e6f74206f776e65720000000000000000000000000000000000000000000000600082015250565b61232d81611fe5565b811461233857600080fd5b50565b61234481611ff7565b811461234f57600080fd5b50565b61235b81612023565b811461236657600080fd5b5056fea26469706673582212206a29202845ffa07bec432f097d46eb75782f519e468cef23f41a82e3996a8efb64736f6c63430008060033",
	"immutableReferences": {},
	"source": "// SPDX-License-Identifier: MIT\npragma solidity >=0.7.0 <0.9.0;\n\ninterface IERC20Token {\n    function transfer(address, uint256) external returns (bool);\n\n    function approve(address, uint256) external returns (bool);\n\n    function transferFrom(\n        address,\n        address,\n        uint256\n    ) external returns (bool);\n\n    function totalSupply() external view returns (uint256);\n\n    function balanceOf(address) external view returns (uint256);\n\n    function allowance(address, address) external view returns (uint256);\n\n    event Transfer(address indexed from, address indexed to, uint256 value);\n    event Approval(\n        address indexed owner,\n        address indexed spender,\n        uint256 value\n    );\n}\n\ncontract MultiSigWallet {\n    //Variables\n    address internal cUsdTokenAddress =\n        0x874069Fa1Eb16D44d622F2e0Ca25eeA172369bC1;\n\n    address[] public owners;\n\n    mapping(address => bool) public isOwner;\n\n    uint256 public numConfirmationsRequired;\n\n    address public walletAddr;\n\n    uint256 public walletBalance;\n\n    struct Transaction {\n        address to;\n        uint256 amount;\n        string purpose;\n        bool executed;\n        uint256 numConfirmations;\n        mapping(address => bool) isConfirmed;\n    }\n\n    Transaction[] public transactions;\n\n    //Events\n    event Deposit(address indexed sender, uint256 amount, uint256 balance);\n    event Withdrawal(address indexed sender, uint256 balance);\n    event SubmitTransaction(\n        address indexed owner,\n        uint256 indexed txIndex,\n        address indexed to,\n        uint256 amount,\n        string purpose\n    );\n    event ConfirmTransaction(address indexed owner, uint256 indexed txIndex);\n    event RevokeConfirmation(address indexed owner, uint256 indexed txIndex);\n    event ExecuteTransaction(address indexed owner, uint256 indexed txIndex);\n\n    //Modifiers\n    modifier onlyOwner() {\n        require(isOwner[msg.sender], \"not owner\");\n        _;\n    }\n\n    modifier txExists(uint256 _txIndex) {\n        require(_txIndex < transactions.length, \"tx does not exist\");\n        _;\n    }\n\n    modifier notExecuted(uint256 _txIndex) {\n        require(!transactions[_txIndex].executed, \"tx already executed\");\n        _;\n    }\n\n    modifier notConfirmed(uint256 _txIndex) {\n        require(\n            !transactions[_txIndex].isConfirmed[msg.sender],\n            \"tx already confirmed\"\n        );\n        _;\n    }\n\n    modifier enoughBal(uint256 _amount) {\n        _;\n    }\n\n    //Constructor\n    constructor(address[] memory _owners, uint256 _numConfirmationsRequired) {\n        require(\n            _numConfirmationsRequired > 0 &&\n                _numConfirmationsRequired <= _owners.length,\n            \"invalid number of required confirmations\"\n        );\n\n        for (uint256 i = 0; i < _owners.length; i++) {\n            address owner = _owners[i];\n\n            require(owner != address(0), \"invalid owner\");\n            require(!isOwner[owner], \"owner not unique\");\n\n            isOwner[owner] = true;\n            owners.push(owner);\n        }\n\n        numConfirmationsRequired = _numConfirmationsRequired;\n        walletAddr = address(this);\n    }\n\n    //Functions\n    function deposit(uint256 _amount) public payable {\n        require(\n            IERC20Token(cUsdTokenAddress).transferFrom(\n                msg.sender,\n                address(this),\n                _amount\n            ),\n            \"Transfer failed\"\n        );\n\n        emit Deposit(\n            msg.sender,\n            _amount,\n            IERC20Token(cUsdTokenAddress).balanceOf(address(this))\n        );\n    }\n\n    function getBalance() public view returns (uint256) {\n        uint256 balance = IERC20Token(cUsdTokenAddress).balanceOf(\n            address(this)\n        );\n        return balance;\n    }\n\n    function submitTransaction(\n        address _to,\n        uint256 _value,\n        string memory _purpose\n    ) public onlyOwner {\n        uint256 txIndex = transactions.length;\n        transactions.push();\n        Transaction storage _transaction = transactions[txIndex];\n        _transaction.to = _to;\n        _transaction.amount = _value;\n        _transaction.purpose = _purpose;\n        _transaction.executed = false;\n        _transaction.numConfirmations = 0;\n\n        emit SubmitTransaction(msg.sender, txIndex, _to, _value, _purpose);\n    }\n\n    function confirmTransaction(uint256 _txIndex)\n        public\n        onlyOwner\n        txExists(_txIndex)\n        notExecuted(_txIndex)\n        notConfirmed(_txIndex)\n    {\n        Transaction storage _transaction = transactions[_txIndex];\n\n        _transaction.isConfirmed[msg.sender] = true;\n        _transaction.numConfirmations += 1;\n\n        emit ConfirmTransaction(msg.sender, _txIndex);\n    }\n\n    function executeTransaction(uint256 _txIndex)\n        public\n        onlyOwner\n        txExists(_txIndex)\n        notExecuted(_txIndex)\n    {\n        Transaction storage transaction = transactions[_txIndex];\n\n        require(\n            transaction.numConfirmations >= numConfirmationsRequired,\n            \"cannot execute tx\"\n        );\n\n        address _to = transaction.to;\n        uint256 _amount = transaction.amount;\n\n        require(\n            IERC20Token(cUsdTokenAddress).balanceOf(address(this)) >= _amount,\n            \"Not Enough Balance\"\n        );\n\n        require(\n            IERC20Token(cUsdTokenAddress).transfer(_to, _amount),\n            \"tx failed\"\n        );\n\n        transaction.executed = true;\n\n        emit ExecuteTransaction(msg.sender, _txIndex);\n        emit Withdrawal(\n            msg.sender,\n            IERC20Token(cUsdTokenAddress).balanceOf(address(this))\n        );\n    }\n\n    function revokeConfirmation(uint256 _txIndex)\n        public\n        onlyOwner\n        txExists(_txIndex)\n        notExecuted(_txIndex)\n    {\n        Transaction storage transaction = transactions[_txIndex];\n\n        require(transaction.isConfirmed[msg.sender], \"tx not confirmed\");\n\n        transaction.isConfirmed[msg.sender] = false;\n        transaction.numConfirmations -= 1;\n\n        emit RevokeConfirmation(msg.sender, _txIndex);\n    }\n\n    function getTransaction(uint256 _txIndex)\n        public\n        view\n        returns (\n            address to,\n            uint256 amount,\n            string memory purpose,\n            bool executed,\n            uint256 numConfirmations\n        )\n    {\n        Transaction storage transaction = transactions[_txIndex];\n\n        return (\n            transaction.to,\n            transaction.amount,\n            transaction.purpose,\n            transaction.executed,\n            transaction.numConfirmations\n        );\n    }\n\n    function getOwners() public view returns (address[] memory) {\n        return owners;\n    }\n\n    function getNumConfirmationsRequired() public view returns (uint256) {\n        return numConfirmationsRequired;\n    }\n\n    function getTransactionCount() public view returns (uint256) {\n        return transactions.length;\n    }\n\n    function isConfirmed(uint256 _txIndex, address _owner)\n        public\n        view\n        returns (bool)\n    {\n        Transaction storage transaction = transactions[_txIndex];\n\n        return transaction.isConfirmed[_owner];\n    }\n}\n",
	"sourcePath": "/home/joe/Documents/celoProjects/Feedbacks/multi-sig-wallet-celo/truffle/contracts/MultiSigWallet.sol",
	"compiler": {
		"name": "solc",
		"version": "0.8.6+commit.11564f7e.Emscripten.clang"
	},
	"schemaVersion": "3.4.1",
	"updatedAt": "2021-09-11T08:22:48.936Z",
	"devdoc": {
		"kind": "dev",
		"methods": {},
		"version": 1
	},
	"userdoc": {
		"kind": "user",
		"methods": {},
		"version": 1
	}
}